{
    "_format": "hh-sol-artifact-1",
    "contractName": "Clients",
    "sourceName": "contracts/Clients.sol",
    "abi": [
        {
            "inputs": [
                {
                    "internalType": "address",
                    "name": "_dataCapToken",
                    "type": "address"
                }
            ],
            "stateMutability": "nonpayable",
            "type": "constructor"
        },
        {
            "anonymous": false,
            "inputs": [
                {
                    "indexed": true,
                    "internalType": "address",
                    "name": "previousOwner",
                    "type": "address"
                },
                {
                    "indexed": true,
                    "internalType": "address",
                    "name": "newOwner",
                    "type": "address"
                }
            ],
            "name": "OwnershipTransferred",
            "type": "event"
        },
        {
            "anonymous": false,
            "inputs": [
                {
                    "indexed": false,
                    "internalType": "address",
                    "name": "account",
                    "type": "address"
                }
            ],
            "name": "Paused",
            "type": "event"
        },
        {
            "anonymous": false,
            "inputs": [
                {
                    "indexed": false,
                    "internalType": "address",
                    "name": "account",
                    "type": "address"
                }
            ],
            "name": "Unpaused",
            "type": "event"
        },
        {
            "inputs": [
                {
                    "internalType": "address",
                    "name": "",
                    "type": "address"
                }
            ],
            "name": "blacklisted",
            "outputs": [
                {
                    "internalType": "bool",
                    "name": "",
                    "type": "bool"
                }
            ],
            "stateMutability": "view",
            "type": "function"
        },
        {
            "inputs": [
                {
                    "internalType": "address",
                    "name": "_account",
                    "type": "address"
                }
            ],
            "name": "burnAllDataCap",
            "outputs": [],
            "stateMutability": "nonpayable",
            "type": "function"
        },
        {
            "inputs": [
                {
                    "internalType": "address",
                    "name": "_account",
                    "type": "address"
                },
                {
                    "internalType": "uint256",
                    "name": "_amount",
                    "type": "uint256"
                }
            ],
            "name": "burnDataCap",
            "outputs": [],
            "stateMutability": "nonpayable",
            "type": "function"
        },
        {
            "inputs": [],
            "name": "dataCapToken",
            "outputs": [
                {
                    "internalType": "contract DataCapToken",
                    "name": "",
                    "type": "address"
                }
            ],
            "stateMutability": "view",
            "type": "function"
        },
        {
            "inputs": [
                {
                    "internalType": "address",
                    "name": "_receiver",
                    "type": "address"
                },
                {
                    "internalType": "uint256",
                    "name": "_amount",
                    "type": "uint256"
                }
            ],
            "name": "getDataCap",
            "outputs": [],
            "stateMutability": "nonpayable",
            "type": "function"
        },
        {
            "inputs": [
                {
                    "internalType": "address",
                    "name": "_account",
                    "type": "address"
                }
            ],
            "name": "isVerified",
            "outputs": [
                {
                    "internalType": "bool",
                    "name": "",
                    "type": "bool"
                }
            ],
            "stateMutability": "view",
            "type": "function"
        },
        {
            "inputs": [],
            "name": "owner",
            "outputs": [
                {
                    "internalType": "address",
                    "name": "",
                    "type": "address"
                }
            ],
            "stateMutability": "view",
            "type": "function"
        },
        {
            "inputs": [],
            "name": "pause",
            "outputs": [],
            "stateMutability": "nonpayable",
            "type": "function"
        },
        {
            "inputs": [],
            "name": "paused",
            "outputs": [
                {
                    "internalType": "bool",
                    "name": "",
                    "type": "bool"
                }
            ],
            "stateMutability": "view",
            "type": "function"
        },
        {
            "inputs": [],
            "name": "renounceOwnership",
            "outputs": [],
            "stateMutability": "nonpayable",
            "type": "function"
        },
        {
            "inputs": [
                {
                    "internalType": "address",
                    "name": "newOwner",
                    "type": "address"
                }
            ],
            "name": "transferOwnership",
            "outputs": [],
            "stateMutability": "nonpayable",
            "type": "function"
        },
        {
            "inputs": [],
            "name": "unpause",
            "outputs": [],
            "stateMutability": "nonpayable",
            "type": "function"
        },
        {
            "inputs": [
                {
                    "internalType": "address",
                    "name": "_account",
                    "type": "address"
                }
            ],
            "name": "unverify",
            "outputs": [],
            "stateMutability": "nonpayable",
            "type": "function"
        },
        {
            "inputs": [
                {
                    "internalType": "address",
                    "name": "_account",
                    "type": "address"
                },
                {
                    "internalType": "string",
                    "name": "_verificationData",
                    "type": "string"
                }
            ],
            "name": "updateVerificationData",
            "outputs": [],
            "stateMutability": "nonpayable",
            "type": "function"
        },
        {
            "inputs": [
                {
                    "internalType": "address",
                    "name": "",
                    "type": "address"
                }
            ],
            "name": "verificationData",
            "outputs": [
                {
                    "internalType": "string",
                    "name": "",
                    "type": "string"
                }
            ],
            "stateMutability": "view",
            "type": "function"
        },
        {
            "inputs": [
                {
                    "internalType": "address",
                    "name": "",
                    "type": "address"
                }
            ],
            "name": "verified",
            "outputs": [
                {
                    "internalType": "bool",
                    "name": "",
                    "type": "bool"
                }
            ],
            "stateMutability": "view",
            "type": "function"
        },
        {
            "inputs": [
                {
                    "internalType": "address",
                    "name": "_account",
                    "type": "address"
                },
                {
                    "internalType": "string",
                    "name": "_verificationData",
                    "type": "string"
                }
            ],
            "name": "verify",
            "outputs": [],
            "stateMutability": "nonpayable",
            "type": "function"
        }
    ],
    "bytecode": "0x608060405234801561001057600080fd5b50604051610e4b380380610e4b83398101604081905261002f916100f5565b6000805460ff1916905561004233610067565b600480546001600160a01b0319166001600160a01b039290921691909117905561011e565b600080546001600160a01b03838116610100818102610100600160a81b0319851617855560405193049190911692909183917f8be0079c531659141344cd1fd0a4f28419497f9722a3daafe3b4186f6b6457e091a35050565b60006001600160a01b0382165b92915050565b6100dc816100c0565b81146100e757600080fd5b50565b80516100cd816100d3565b60006020828403121561010a5761010a600080fd5b600061011684846100ea565b949350505050565b610d1e8061012d6000396000f3fe608060405234801561001057600080fd5b506004361061011b5760003560e01c80638456cb59116100b2578063dbac26e911610081578063e8fc927311610066578063e8fc92731461026a578063f2fde38b1461027d578063f5f6aebf1461029057600080fd5b8063dbac26e914610234578063e3f8adcd1461025757600080fd5b80638456cb59146101c257806389085bde146101ca5780638da5cb5b146101ea578063b9209e331461020857600080fd5b806347a8d164116100ee57806347a8d164146101895780635c975abb1461019c578063711a6e15146101a7578063715018a6146101ba57600080fd5b80630cb4986d146101205780630db065f41461013557806335f688121461016e5780633f4ba83a14610181575b600080fd5b61013361012e36600461074d565b6102b0565b005b61015861014336600461074d565b60016020526000908152604090205460ff1681565b6040516101659190610780565b60405180910390f35b61013361017c366004610889565b61032d565b61013361035c565b6101336101973660046108f2565b61036e565b60005460ff16610158565b6101336101b53660046108f2565b6103ee565b610133610438565b61013361044a565b6004546101dd906001600160a01b031681565b6040516101659190610967565b60005461010090046001600160a01b0316604051610165919061097e565b61015861021636600461074d565b6001600160a01b031660009081526001602052604090205460ff1690565b61015861024236600461074d565b60036020526000908152604090205460ff1681565b61013361026536600461074d565b61045a565b610133610278366004610889565b61049c565b61013361028b36600461074d565b6104d3565b6102a361029e36600461074d565b610513565b60405161016591906109e2565b600480546040517f7e9d2ac10000000000000000000000000000000000000000000000000000000081526001600160a01b0390911691637e9d2ac1916102f89185910161097e565b600060405180830381600087803b15801561031257600080fd5b505af1158015610326573d6000803e3d6000fd5b5050505050565b6103356105ad565b6001600160a01b03821660009081526002602052604090206103578282610ad6565b505050565b6103646105ad565b61036c6105dd565b565b600480546040517f40c10f190000000000000000000000000000000000000000000000000000000081526001600160a01b03909116916340c10f19916103b8918691869101610b9f565b600060405180830381600087803b1580156103d257600080fd5b505af11580156103e6573d6000803e3d6000fd5b505050505050565b600480546040517f3629d3070000000000000000000000000000000000000000000000000000000081526001600160a01b0390911691633629d307916103b8918691869101610b9f565b6104406105ad565b61036c6000610629565b6104526105ad565b61036c610699565b6001600160a01b0381166000908152600160208181526040808420805460ff1990811690915560039092529092208054909216179055610499816102b0565b50565b6001600160a01b0382166000908152600160208181526040808420805460ff19169093179092556002905290206103578282610ad6565b6104db6105ad565b6001600160a01b03811661050a5760405162461bcd60e51b815260040161050190610bba565b60405180910390fd5b61049981610629565b6002602052600090815260409020805461052c90610a10565b80601f016020809104026020016040519081016040528092919081815260200182805461055890610a10565b80156105a55780601f1061057a576101008083540402835291602001916105a5565b820191906000526020600020905b81548152906001019060200180831161058857829003601f168201915b505050505081565b6000546001600160a01b0361010090910416331461036c5760405162461bcd60e51b815260040161050190610c50565b6105e56106d6565b6000805460ff191690557f5db9ee0a495bf2e6ff9c91a7834c1ba4fdd244a5e8aa4e537bd38aeae4b073aa335b60405161061f919061097e565b60405180910390a1565b600080546001600160a01b038381166101008181027fffffffffffffffffffffff0000000000000000000000000000000000000000ff851617855560405193049190911692909183917f8be0079c531659141344cd1fd0a4f28419497f9722a3daafe3b4186f6b6457e091a35050565b6106a16106f8565b6000805460ff191660011790557f62e78cea01bee320cd4e420270b5ea74000d11b0c9f74754ebdbfc544b05a2586106123390565b60005460ff1661036c5760405162461bcd60e51b815260040161050190610c94565b60005460ff161561036c5760405162461bcd60e51b815260040161050190610cd8565b60006001600160a01b0382165b92915050565b6107378161071b565b811461049957600080fd5b80356107288161072e565b60006020828403121561076257610762600080fd5b600061076e8484610742565b949350505050565b8015155b82525050565b602081016107288284610776565b634e487b7160e01b600052604160045260246000fd5b601f19601f830116810181811067ffffffffffffffff821117156107ca576107ca61078e565b6040525050565b60006107dc60405190565b90506107e882826107a4565b919050565b600067ffffffffffffffff8211156108075761080761078e565b601f19601f83011660200192915050565b82818337506000910152565b6000610837610832846107ed565b6107d1565b90508281526020810184848401111561085257610852600080fd5b61085d848285610818565b509392505050565b600082601f83011261087957610879600080fd5b813561076e848260208601610824565b6000806040838503121561089f5761089f600080fd5b60006108ab8585610742565b925050602083013567ffffffffffffffff8111156108cb576108cb600080fd5b6108d785828601610865565b9150509250929050565b80610737565b8035610728816108e1565b6000806040838503121561090857610908600080fd5b60006109148585610742565b92505060206108d7858286016108e7565b60006107286001600160a01b03831661093c565b90565b6001600160a01b031690565b600061072882610925565b600061072882610948565b61077a81610953565b60208101610728828461095e565b61077a8161071b565b602081016107288284610975565b60005b838110156109a757818101518382015260200161098f565b50506000910152565b60006109ba825190565b8084526020840193506109d181856020860161098c565b601f01601f19169290920192915050565b602080825281016109f381846109b0565b9392505050565b634e487b7160e01b600052602260045260246000fd5b600281046001821680610a2457607f821691505b602082108103610a3657610a366109fa565b50919050565b60006107286109398381565b610a5183610a3c565b81546008840282811b60001990911b908116901990911617825550505050565b6000610357818484610a48565b81811015610a9957610a91600082610a71565b600101610a7e565b5050565b601f821115610357576000818152602090206020601f85010481016020851015610ac45750805b6103266020601f860104830182610a7e565b815167ffffffffffffffff811115610af057610af061078e565b610afa8254610a10565b610b05828285610a9d565b6020601f831160018114610b395760008415610b215750858201515b600019600886021c19811660028602178655506103e6565b600085815260208120601f198616915b82811015610b695788850151825560209485019460019092019101610b49565b86831015610b855784890151600019601f89166008021c191682555b600160028802018855505050505050505050565b8061077a565b60408101610bad8285610975565b6109f36020830184610b99565b6020808252810161072881602681527f4f776e61626c653a206e6577206f776e657220697320746865207a65726f206160208201527f6464726573730000000000000000000000000000000000000000000000000000604082015260600190565b60208082527f4f776e61626c653a2063616c6c6572206973206e6f7420746865206f776e6572910190815260005b5060200190565b6020808252810161072881610c1b565b601481526000602082017f5061757361626c653a206e6f742070617573656400000000000000000000000081529150610c49565b6020808252810161072881610c60565b601081526000602082017f5061757361626c653a207061757365640000000000000000000000000000000081529150610c49565b6020808252810161072881610ca456fea2646970667358221220783ed3f00038061099cf6b6a8817e469e3bec734693f52af2ae488574b50394764736f6c63430008110033",
    "linkReferences": {},
    "deployedLinkReferences": {}
}