{
    "_format": "hh-sol-artifact-1",
    "contractName": "DataCapToken",
    "sourceName": "contracts/DataCapToken.sol",
    "abi": [
        {
            "inputs": [],
            "stateMutability": "nonpayable",
            "type": "constructor"
        },
        {
            "anonymous": false,
            "inputs": [
                {
                    "indexed": true,
                    "internalType": "address",
                    "name": "owner",
                    "type": "address"
                },
                {
                    "indexed": true,
                    "internalType": "address",
                    "name": "spender",
                    "type": "address"
                },
                {
                    "indexed": false,
                    "internalType": "uint256",
                    "name": "value",
                    "type": "uint256"
                }
            ],
            "name": "Approval",
            "type": "event"
        },
        {
            "anonymous": false,
            "inputs": [
                {
                    "indexed": true,
                    "internalType": "address",
                    "name": "previousOwner",
                    "type": "address"
                },
                {
                    "indexed": true,
                    "internalType": "address",
                    "name": "newOwner",
                    "type": "address"
                }
            ],
            "name": "OwnershipTransferred",
            "type": "event"
        },
        {
            "anonymous": false,
            "inputs": [
                {
                    "indexed": false,
                    "internalType": "address",
                    "name": "account",
                    "type": "address"
                }
            ],
            "name": "Paused",
            "type": "event"
        },
        {
            "anonymous": false,
            "inputs": [
                {
                    "indexed": true,
                    "internalType": "address",
                    "name": "from",
                    "type": "address"
                },
                {
                    "indexed": true,
                    "internalType": "address",
                    "name": "to",
                    "type": "address"
                },
                {
                    "indexed": false,
                    "internalType": "uint256",
                    "name": "value",
                    "type": "uint256"
                }
            ],
            "name": "Transfer",
            "type": "event"
        },
        {
            "anonymous": false,
            "inputs": [
                {
                    "indexed": false,
                    "internalType": "address",
                    "name": "account",
                    "type": "address"
                }
            ],
            "name": "Unpaused",
            "type": "event"
        },
        {
            "inputs": [
                {
                    "internalType": "address",
                    "name": "owner",
                    "type": "address"
                },
                {
                    "internalType": "address",
                    "name": "spender",
                    "type": "address"
                }
            ],
            "name": "allowance",
            "outputs": [
                {
                    "internalType": "uint256",
                    "name": "",
                    "type": "uint256"
                }
            ],
            "stateMutability": "view",
            "type": "function"
        },
        {
            "inputs": [
                {
                    "internalType": "address",
                    "name": "spender",
                    "type": "address"
                },
                {
                    "internalType": "uint256",
                    "name": "amount",
                    "type": "uint256"
                }
            ],
            "name": "approve",
            "outputs": [
                {
                    "internalType": "bool",
                    "name": "",
                    "type": "bool"
                }
            ],
            "stateMutability": "nonpayable",
            "type": "function"
        },
        {
            "inputs": [
                {
                    "internalType": "address",
                    "name": "account",
                    "type": "address"
                }
            ],
            "name": "balanceOf",
            "outputs": [
                {
                    "internalType": "uint256",
                    "name": "",
                    "type": "uint256"
                }
            ],
            "stateMutability": "view",
            "type": "function"
        },
        {
            "inputs": [
                {
                    "internalType": "uint256",
                    "name": "amount",
                    "type": "uint256"
                }
            ],
            "name": "burn",
            "outputs": [],
            "stateMutability": "nonpayable",
            "type": "function"
        },
        {
            "inputs": [
                {
                    "internalType": "address",
                    "name": "account",
                    "type": "address"
                }
            ],
            "name": "burnAll",
            "outputs": [],
            "stateMutability": "nonpayable",
            "type": "function"
        },
        {
            "inputs": [
                {
                    "internalType": "address",
                    "name": "account",
                    "type": "address"
                },
                {
                    "internalType": "uint256",
                    "name": "amount",
                    "type": "uint256"
                }
            ],
            "name": "burnFrom",
            "outputs": [],
            "stateMutability": "nonpayable",
            "type": "function"
        },
        {
            "inputs": [
                {
                    "internalType": "address",
                    "name": "account",
                    "type": "address"
                },
                {
                    "internalType": "uint256",
                    "name": "amount",
                    "type": "uint256"
                }
            ],
            "name": "burnSome",
            "outputs": [],
            "stateMutability": "nonpayable",
            "type": "function"
        },
        {
            "inputs": [],
            "name": "decimals",
            "outputs": [
                {
                    "internalType": "uint8",
                    "name": "",
                    "type": "uint8"
                }
            ],
            "stateMutability": "view",
            "type": "function"
        },
        {
            "inputs": [
                {
                    "internalType": "address",
                    "name": "spender",
                    "type": "address"
                },
                {
                    "internalType": "uint256",
                    "name": "subtractedValue",
                    "type": "uint256"
                }
            ],
            "name": "decreaseAllowance",
            "outputs": [
                {
                    "internalType": "bool",
                    "name": "",
                    "type": "bool"
                }
            ],
            "stateMutability": "nonpayable",
            "type": "function"
        },
        {
            "inputs": [
                {
                    "internalType": "address",
                    "name": "spender",
                    "type": "address"
                },
                {
                    "internalType": "uint256",
                    "name": "addedValue",
                    "type": "uint256"
                }
            ],
            "name": "increaseAllowance",
            "outputs": [
                {
                    "internalType": "bool",
                    "name": "",
                    "type": "bool"
                }
            ],
            "stateMutability": "nonpayable",
            "type": "function"
        },
        {
            "inputs": [
                {
                    "internalType": "address",
                    "name": "to",
                    "type": "address"
                },
                {
                    "internalType": "uint256",
                    "name": "amount",
                    "type": "uint256"
                }
            ],
            "name": "mint",
            "outputs": [],
            "stateMutability": "nonpayable",
            "type": "function"
        },
        {
            "inputs": [],
            "name": "name",
            "outputs": [
                {
                    "internalType": "string",
                    "name": "",
                    "type": "string"
                }
            ],
            "stateMutability": "view",
            "type": "function"
        },
        {
            "inputs": [],
            "name": "owner",
            "outputs": [
                {
                    "internalType": "address",
                    "name": "",
                    "type": "address"
                }
            ],
            "stateMutability": "view",
            "type": "function"
        },
        {
            "inputs": [],
            "name": "pause",
            "outputs": [],
            "stateMutability": "nonpayable",
            "type": "function"
        },
        {
            "inputs": [],
            "name": "paused",
            "outputs": [
                {
                    "internalType": "bool",
                    "name": "",
                    "type": "bool"
                }
            ],
            "stateMutability": "view",
            "type": "function"
        },
        {
            "inputs": [],
            "name": "renounceOwnership",
            "outputs": [],
            "stateMutability": "nonpayable",
            "type": "function"
        },
        {
            "inputs": [],
            "name": "symbol",
            "outputs": [
                {
                    "internalType": "string",
                    "name": "",
                    "type": "string"
                }
            ],
            "stateMutability": "view",
            "type": "function"
        },
        {
            "inputs": [],
            "name": "totalSupply",
            "outputs": [
                {
                    "internalType": "uint256",
                    "name": "",
                    "type": "uint256"
                }
            ],
            "stateMutability": "view",
            "type": "function"
        },
        {
            "inputs": [
                {
                    "internalType": "address",
                    "name": "to",
                    "type": "address"
                },
                {
                    "internalType": "uint256",
                    "name": "amount",
                    "type": "uint256"
                }
            ],
            "name": "transfer",
            "outputs": [
                {
                    "internalType": "bool",
                    "name": "",
                    "type": "bool"
                }
            ],
            "stateMutability": "nonpayable",
            "type": "function"
        },
        {
            "inputs": [
                {
                    "internalType": "address",
                    "name": "from",
                    "type": "address"
                },
                {
                    "internalType": "address",
                    "name": "to",
                    "type": "address"
                },
                {
                    "internalType": "uint256",
                    "name": "amount",
                    "type": "uint256"
                }
            ],
            "name": "transferFrom",
            "outputs": [
                {
                    "internalType": "bool",
                    "name": "",
                    "type": "bool"
                }
            ],
            "stateMutability": "nonpayable",
            "type": "function"
        },
        {
            "inputs": [
                {
                    "internalType": "address",
                    "name": "newOwner",
                    "type": "address"
                }
            ],
            "name": "transferOwnership",
            "outputs": [],
            "stateMutability": "nonpayable",
            "type": "function"
        },
        {
            "inputs": [],
            "name": "unpause",
            "outputs": [],
            "stateMutability": "nonpayable",
            "type": "function"
        }
    ],
    "bytecode": "0x60806040523480156200001157600080fd5b506040518060400160405280600c81526020016b2230ba30a1b0b82a37b5b2b760a11b8152506040518060400160405280600381526020016204341560ec1b815250816003908162000064919062000204565b50600462000073828262000204565b50506005805460ff19169055506200008b3362000091565b620002d4565b600580546001600160a01b03838116610100818102610100600160a81b031985161790945560405193909204169182907f8be0079c531659141344cd1fd0a4f28419497f9722a3daafe3b4186f6b6457e090600090a35050565b634e487b7160e01b600052604160045260246000fd5b634e487b7160e01b600052602260045260246000fd5b6002810460018216806200012c57607f821691505b60208210810362000141576200014162000101565b50919050565b600062000158620001558381565b90565b92915050565b620001698362000147565b81546008840282811b60001990911b908116901990911617825550505050565b6000620001988184846200015e565b505050565b81811015620001bc57620001b360008262000189565b6001016200019d565b5050565b601f82111562000198576000818152602090206020601f85010481016020851015620001e95750805b620001fd6020601f8601048301826200019d565b5050505050565b81516001600160401b03811115620002205762000220620000eb565b6200022c825462000117565b62000239828285620001c0565b6020601f831160018114620002705760008415620002575750858201515b600019600886021c1981166002860217865550620002cc565b600085815260208120601f198616915b82811015620002a2578885015182556020948501946001909201910162000280565b86831015620002bf5784890151600019601f89166008021c191682555b6001600288020188555050505b505050505050565b61126c80620002e46000396000f3fe608060405234801561001057600080fd5b50600436106101825760003560e01c806370a08231116100d85780638da5cb5b1161008c578063a9059cbb11610066578063a9059cbb146102f1578063dd62ed3e14610304578063f2fde38b1461033d57600080fd5b80638da5cb5b146102b857806395d89b41146102d6578063a457c2d7146102de57600080fd5b806379cc6790116100bd57806379cc67901461028a5780637e9d2ac11461029d5780638456cb59146102b057600080fd5b806370a0823114610259578063715018a61461028257600080fd5b80633629d3071161013a57806340c10f191161011457806340c10f191461022857806342966c681461023b5780635c975abb1461024e57600080fd5b80633629d307146101f8578063395093511461020d5780633f4ba83a1461022057600080fd5b806318160ddd1161016b57806318160ddd146101c557806323b872dd146101d6578063313ce567146101e957600080fd5b806306fdde0314610187578063095ea7b3146101a5575b600080fd5b61018f610350565b60405161019c9190610afc565b60405180910390f35b6101b86101b3366004610b55565b6103e2565b60405161019c9190610b9c565b6002545b60405161019c9190610bb0565b6101b86101e4366004610bbe565b6103fc565b601260405161019c9190610c17565b61020b610206366004610b55565b610420565b005b6101b861021b366004610b55565b610436565b61020b610475565b61020b610236366004610b55565b610487565b61020b610249366004610c25565b610499565b60055460ff166101b8565b6101c9610267366004610c4e565b6001600160a01b031660009081526020819052604090205490565b61020b6104a6565b61020b610298366004610b55565b6104b8565b61020b6102ab366004610c4e565b6104c3565b61020b6104f3565b60055461010090046001600160a01b031660405161019c9190610c78565b61018f610503565b6101b86102ec366004610b55565b610512565b6101b86102ff366004610b55565b61056f565b6101c9610312366004610c86565b6001600160a01b03918216600090815260016020908152604080832093909416825291909152205490565b61020b61034b366004610c4e565b61057d565b60606003805461035f90610ccf565b80601f016020809104026020016040519081016040528092919081815260200182805461038b90610ccf565b80156103d85780601f106103ad576101008083540402835291602001916103d8565b820191906000526020600020905b8154815290600101906020018083116103bb57829003601f168201915b5050505050905090565b6000336103f08185856105b4565b60019150505b92915050565b60003361040a858285610668565b6104158585856106ca565b506001949350505050565b6104286107c5565b61043282826107f5565b5050565b3360008181526001602090815260408083206001600160a01b03871684529091528120549091906103f09082908690610470908790610d11565b6105b4565b61047d6107c5565b6104856108b8565b565b61048f6107c5565b6104328282610904565b6104a333826107f5565b50565b6104ae6107c5565b61048560006109a6565b610428823383610668565b6104cb6107c5565b6104a3816104ee836001600160a01b031660009081526020819052604090205490565b6107f5565b6104fb6107c5565b610485610a17565b60606004805461035f90610ccf565b3360008181526001602090815260408083206001600160a01b0387168452909152812054909190838110156105625760405162461bcd60e51b815260040161055990610d81565b60405180910390fd5b61041582868684036105b4565b6000336103f08185856106ca565b6105856107c5565b6001600160a01b0381166105ab5760405162461bcd60e51b815260040161055990610deb565b6104a3816109a6565b6001600160a01b0383166105da5760405162461bcd60e51b815260040161055990610e55565b6001600160a01b0382166106005760405162461bcd60e51b815260040161055990610ebf565b6001600160a01b0380841660008181526001602090815260408083209487168084529490915290819020849055517f8c5be1e5ebec7d5bd14f71427d1e84f3dd0314c0f7b2291e5b200ac8c7c3b9259061065b908590610bb0565b60405180910390a3505050565b6001600160a01b0383811660009081526001602090815260408083209386168352929052205460001981146106c457818110156106b75760405162461bcd60e51b815260040161055990610f06565b6106c484848484036105b4565b50505050565b6001600160a01b0383166106f05760405162461bcd60e51b815260040161055990610f70565b6001600160a01b0382166107165760405162461bcd60e51b815260040161055990610fda565b610721838383610a54565b6001600160a01b0383166000908152602081905260409020548181101561075a5760405162461bcd60e51b815260040161055990611044565b6001600160a01b0380851660008181526020819052604080822086860390559286168082529083902080548601905591517fddf252ad1be2c89b69c2b068fc378daa952ba7f163c4a11628f55a4df523b3ef906107b8908690610bb0565b60405180910390a36106c4565b6005546001600160a01b036101009091041633146104855760405162461bcd60e51b815260040161055990611086565b6001600160a01b03821661081b5760405162461bcd60e51b8152600401610559906110f0565b61082782600083610a54565b6001600160a01b038216600090815260208190526040902054818110156108605760405162461bcd60e51b81526004016105599061115a565b6001600160a01b0383166000818152602081905260408082208585039055600280548690039055519091907fddf252ad1be2c89b69c2b068fc378daa952ba7f163c4a11628f55a4df523b3ef9061065b908690610bb0565b6108c0610a61565b6005805460ff191690557f5db9ee0a495bf2e6ff9c91a7834c1ba4fdd244a5e8aa4e537bd38aeae4b073aa335b6040516108fa9190610c78565b60405180910390a1565b6001600160a01b03821661092a5760405162461bcd60e51b81526004016105599061119e565b61093660008383610a54565b80600260008282546109489190610d11565b90915550506001600160a01b038216600081815260208190526040808220805485019055517fddf252ad1be2c89b69c2b068fc378daa952ba7f163c4a11628f55a4df523b3ef9061099a908590610bb0565b60405180910390a35050565b600580546001600160a01b038381166101008181027fffffffffffffffffffffff0000000000000000000000000000000000000000ff85161790945560405193909204169182907f8be0079c531659141344cd1fd0a4f28419497f9722a3daafe3b4186f6b6457e090600090a35050565b610a1f610a83565b6005805460ff191660011790557f62e78cea01bee320cd4e420270b5ea74000d11b0c9f74754ebdbfc544b05a2586108ed3390565b610a5c610a83565b505050565b60055460ff166104855760405162461bcd60e51b8152600401610559906111e2565b60055460ff16156104855760405162461bcd60e51b815260040161055990611226565b60005b83811015610ac1578181015183820152602001610aa9565b50506000910152565b6000610ad4825190565b808452602084019350610aeb818560208601610aa6565b601f01601f19169290920192915050565b60208082528101610b0d8184610aca565b9392505050565b60006001600160a01b0382166103f6565b610b2e81610b14565b81146104a357600080fd5b80356103f681610b25565b80610b2e565b80356103f681610b44565b60008060408385031215610b6b57610b6b600080fd5b6000610b778585610b39565b9250506020610b8885828601610b4a565b9150509250929050565b8015155b82525050565b602081016103f68284610b92565b80610b96565b602081016103f68284610baa565b600080600060608486031215610bd657610bd6600080fd5b6000610be28686610b39565b9350506020610bf386828701610b39565b9250506040610c0486828701610b4a565b9150509250925092565b60ff8116610b96565b602081016103f68284610c0e565b600060208284031215610c3a57610c3a600080fd5b6000610c468484610b4a565b949350505050565b600060208284031215610c6357610c63600080fd5b6000610c468484610b39565b610b9681610b14565b602081016103f68284610c6f565b60008060408385031215610c9c57610c9c600080fd5b6000610ca88585610b39565b9250506020610b8885828601610b39565b634e487b7160e01b600052602260045260246000fd5b600281046001821680610ce357607f821691505b602082108103610cf557610cf5610cb9565b50919050565b634e487b7160e01b600052601160045260246000fd5b808201808211156103f6576103f6610cfb565b602581526000602082017f45524332303a2064656372656173656420616c6c6f77616e63652062656c6f7781527f207a65726f000000000000000000000000000000000000000000000000000000602082015291505b5060400190565b602080825281016103f681610d24565b602681526000602082017f4f776e61626c653a206e6577206f776e657220697320746865207a65726f206181527f646472657373000000000000000000000000000000000000000000000000000060208201529150610d7a565b602080825281016103f681610d91565b602481526000602082017f45524332303a20617070726f76652066726f6d20746865207a65726f2061646481527f726573730000000000000000000000000000000000000000000000000000000060208201529150610d7a565b602080825281016103f681610dfb565b602281526000602082017f45524332303a20617070726f766520746f20746865207a65726f20616464726581527f737300000000000000000000000000000000000000000000000000000000000060208201529150610d7a565b602080825281016103f681610e65565b601d81526000602082017f45524332303a20696e73756666696369656e7420616c6c6f77616e6365000000815291505b5060200190565b602080825281016103f681610ecf565b602581526000602082017f45524332303a207472616e736665722066726f6d20746865207a65726f20616481527f647265737300000000000000000000000000000000000000000000000000000060208201529150610d7a565b602080825281016103f681610f16565b602381526000602082017f45524332303a207472616e7366657220746f20746865207a65726f206164647281527f657373000000000000000000000000000000000000000000000000000000000060208201529150610d7a565b602080825281016103f681610f80565b602681526000602082017f45524332303a207472616e7366657220616d6f756e742065786365656473206281527f616c616e6365000000000000000000000000000000000000000000000000000060208201529150610d7a565b602080825281016103f681610fea565b60208082527f4f776e61626c653a2063616c6c6572206973206e6f7420746865206f776e657291019081526000610eff565b602080825281016103f681611054565b602181526000602082017f45524332303a206275726e2066726f6d20746865207a65726f2061646472657381527f730000000000000000000000000000000000000000000000000000000000000060208201529150610d7a565b602080825281016103f681611096565b602281526000602082017f45524332303a206275726e20616d6f756e7420657863656564732062616c616e81527f636500000000000000000000000000000000000000000000000000000000000060208201529150610d7a565b602080825281016103f681611100565b601f81526000602082017f45524332303a206d696e7420746f20746865207a65726f20616464726573730081529150610eff565b602080825281016103f68161116a565b601481526000602082017f5061757361626c653a206e6f742070617573656400000000000000000000000081529150610eff565b602080825281016103f6816111ae565b601081526000602082017f5061757361626c653a207061757365640000000000000000000000000000000081529150610eff565b602080825281016103f6816111f256fea2646970667358221220ca4ba48c23a406b69d44dbf2774d9d892d71a338245854ea0041de5e7bf3951464736f6c63430008110033",
    "linkReferences": {},
    "deployedLinkReferences": {}
}